:020000040800F2
:10000000A8050020C9000008AD260008ED1D000865
:1000100000000000000000000000000000000000E0
:10002000000000000000000000000000332900086C
:1000300000000000000000003129000835290008F8
:10004000DB00000800000000DB000008DB00000807
:10005000DB000008DB000008DB000008DB00000814
:1000600000000000DB000008DB000008DB000008E7
:10007000DB000008DB000008DB00000800000000D7
:10008000DB0000080000000000000000BD2900089F
:1000900000000000DB000008DB000008DB000008B7
:1000A00000000000DB00000800000000DB0000088A
:1000B0000448854600F072FA00480047D93100082C
:1000C000C046C046A80500200448804704480047B1
:1000D000FEE7FEE7FEE7FEE7FEE7FEE7BB290008D6
:1000E000B100000830B50B46014600202022012453
:1000F00009E00D46D5409D4205D31D469540491B5C
:100100002546954040191546521E002DF1DC30BDA4
:1001100070B500242546002801DA01244042002958
:1001200001DA01254942FFF7DDFFAC4200D0404231
:10013000002C00D0494270BDF0B51FB40646002027
:1001400082B005464024019100901BE001992246AF
:100150000F46304600F020F8049A059B801A99411A
:1001600010D310461946224600F068F9361A8F411E
:100170000197224601200021009F00F05FF9381806
:100180004D4100902046641E0028DFDC019B009852
:100190002946324607B0F0BD10B5202A04DB0846D8
:1001A000203AD040002110BD0B46D340D04020243F
:1001B000A21A91400843194610BD03460B439B0702
:1001C00003D009E008C9121F08C0042AFAD203E0CC
:1001D0000B780370401C491C521EF9D27047D2B2F2
:1001E00001E00270401C491EFBD270470022F6E776
:1001F00010B513460A4604461946FFF7F0FF20469D
:1002000010BD024670B54A40D30FDB0740002DD029
:100210004A002AD0010E140E000212020919400AE7
:10022000520A8418E50104465443000A120A2E04B7
:100230005043A4194219200CC543AA18120C0125D9
:10024000AD03521C521912047F39240400D0521CF1
:10025000104301D44000491EC2B20C06C009201848
:10026000401C4008802A02D003E0002070BD4008F6
:100270004000002900DA0020184370BDF0B51FB41B
:1002800088B00B990998002448400999C00F49008B
:1002900049080991C0070B990090490049080B9142
:1002A00009990898A64608431CD00B990A98084358
:1002B00018D0099801244000420D4800410D0998CA
:1002C00024050003000B204309900B980003000B4A
:1002D00020430B9050181C494018002201901446EE
:1002E000104605E0002001460DB0F0BD032801DAFC
:1002F000034600E003239C46C11A0AAE0AE05F00F1
:1003000008ADED5B4F00F75B7D430027AA187C41E9
:10031000491C5B1E6145F2DD410004AB5A522104C9
:10032000120C0A43240C401C0828DFDB01980290C1
:100330000099704601910090059B049A07990698D0
:1003400000F0DAF8D0E700000DFCFFFF10B5002246
:100350009623114600F08AF810BD00000EB505493D
:100360000291002100910A460B46019100F0C4F869
:1003700003B000BD33040000410040020122400AE6
:10038000D205090E80187F2901DA002070479629CE
:1003900003DC9622511AC84070479639884070474E
:1003A0004A0009030123090B1B051943094B10B52A
:1003B000520D9A4201DA002010BD064B34339A42A6
:1003C00003DC9A1AFFF7E8FE10BD03495118884074
:1003D00010BD0000FF030000CDFBFFFFC20FD207DE
:1003E000400040080BD0C10D0723DB01C9184002B3
:1003F0000905400A1143C208400711437047002015
:1004000001467047CB0FDB07490010B5490802468B
:100410000A4307D00A0D07240903E401090B121B44
:10042000002A01DC002010BDC900440F0C43C100AC
:10043000E018D205801800F011F810BD10B5202A80
:1004400004DB0146203A9140002010BD914020235A
:100450009C1A0346E3401943904010BD002904DA7A
:10046000401C490001D140084000704770B400248E
:10047000050C05D11024000402D1002921D011243B
:10048000050E01D100020834050F01D10001241D21
:10049000850F01D18000A41C002801DB4000641CF2
:1004A000002908D020252E1B0D46F540A14000D084
:1004B00001212943084301061B1B000ADB1D02D54D
:1004C000002070BC7047DB05181880180029F8DA86
:1004D000401C4900F5D170BC40084000704710B581
:1004E000002B08DA0024401C614192185B411A433A
:1004F00001D14008400010BDF0B51FB482B00546E0
:100500000C0003D0084602F0D2FD02E002F0CFFD5D
:1005100020300246009021462846FFF78FFF049BBB
:10052000059A04460F4618431143084314D0184651
:1005300010431BD0009840210A1A18460599FFF76E
:100540002BFE05460E46009A05990498FFF776FFA4
:10055000084305D0012004E02046394607B0F0BD2D
:100560000020C11705430E432C43374300990E98D2
:100570006305401A7905E40A00220C43FD0A0A309B
:1005800002D500200146E9E70105101969410C9CDC
:100590000D9D00196941FFF7A2FFDFE7064C012519
:1005A000064E05E0E36807CC2B430C3C984710341B
:1005B000B442F7D3FFF780FD403E0008603E0008DC
:1005C000F8B5044600200090206881688907890FEB
:1005D000012905D10168C90731D1C16809042ED4A8
:1005E0008168184A10261140012500291AD1816816
:1005F00029438160154814490068FFF773FD00E046
:10060000401E00900028FBD100F03EFB074611E0A1
:1006100000F03AFBC01B02280CD920680068C043D8
:10062000C00707D0A06B3043A063E06B2843E063B2
:100630000120F8BD20680068C043C007E8D1002051
:10064000F8BD00001700008040420F001400002099
:1006500010B50E48002241888256891889B20C4A8A
:100660004180914203D300214280C94302E0002926
:1006700001D10121017040887D21C90048438900D2
:10068000FFF730FD03490968486310BD3E000020B4
:100690009F0F0000D800002072B6FEE7F8B50025D5
:1006A000044620340095227D012A39D0012222758A
:1006B00003689E68760767D4384F4E68BE424DD0B7
:1006C0009E6A0F78BA4016439E620123C26A1B07D6
:1006D0009A421FD0012A1DD0022A1BD0032A19D00A
:1006E000042A17D0052A15D0062A13D0072A11D0BC
:1006F00002688B6856697607760FB3420AD0536951
:10070000DB08DB005361006842690B7A5B075B0F13
:100710001A4342610A68102A04D0112A02D038E034
:100720000220F8BD1E488368102A07D001229205D6
:10073000134383600868102803D02AE00122D20501
:10074000F6E7194817490068FFF7CCFC0A2148432F
:1007500000E0401E00900028FBD11AE0986A0E7855
:10076000B240904398620968102901D0112910D134
:100770000B488268102904D0012189058A438260D0
:1007800007E00121C905F9E7816B2022114381634C
:100790000125002020752846F8BD0000011000004A
:1007A0000027014040420F00140000200068006C48
:1007B00070470000F8B500260446002805D0A06B5D
:1007C00025462035002802D007E00120F8BD002092
:1007D000E0632875204600F0A9F8A06B1022C0063F
:1007E000002870DB2068816849076CD4A16B130175
:1007F000994302231943A16381688907890F01295D
:1008000005D10168C9070FD1C16809040CD4C168BA
:1008100018239943A3681943C1602068016963687C
:1008200089008908194301612068C1683D4B19405E
:10083000C160207E617E8003C9030843A17E4B0313
:100840001843A36A012B02D001231B0300E00023FD
:100850001843E36818432369022B09D00023184387
:100860002B79E57E5B0018430123012D02D00AE0BD
:100870000423F4E7002927D0A16B20252943A16395
:10088000E16B1943E163E1690D46FF3DC23D02D0D2
:10089000256A294308432168CD680543CD600125B9
:1008A000E16A2D07A94213D0012911D002290FD0E6
:1008B00003290DD004290BD0052909D0062907D01A
:1008C000072905D010E028E0012109040843DAE7F0
:1008D00021684D69ED08ED004D6121684D69A78DD6
:1008E0007F077F0F3D434D612168C9680E4D294048
:1008F000814207D10020E063A06B80088000401C8B
:10090000A06308E0A06B022188431043A063E06B62
:100910001843E06301263046F8BDA06B1043A06386
:10092000F8E700001902FEFFE7FF3F8310B586B02D
:10093000044614216846FFF759FC10492068884294
:1009400019D10F48826941150A43826182690A40C0
:100950000592426909020A434261406908400590D4
:100960000120009003200190002002900920694698
:10097000C00600F0ABF806B010BD00000024014036
:1009800000100240F8B504464069254620350E4661
:1009900008280BD02068C068C00709D0A06B2021B0
:1009A0000843A063002028750120F8BD082700E057
:1009B0000C2700F069F9009015E0701C13D0002E90
:1009C00005D000F061F90099401AB0420BD92068B7
:1009D0000068384207D1A06B04210843A0630020BF
:1009E00028750320F8BD206800683842E5D0A06B68
:1009F000012149020843A0632068C16809058A0FE4
:100A00000C21002A1AD1A27E002A17D102681207EF
:100A100014D5826853070122002B08DB43688B43FF
:100A20004360A06B130298431043A06306E0A06BE1
:100A300020231843A063E06B1043E063207E00286E
:100A400001D1206801600020F8BD000070B50446A7
:100A5000216800208968490721D425462035297D51
:100A600001291CD001212975617E012904D020466D
:100A7000FFF7A6FD002811D1A16B0A4A1140FF2201
:100A800001321143A1630021E163297522681C2111
:100A9000116021688A6804231A438A6070BD0220AD
:100AA00070BD0000FEF1FFFF70B5044600F0ECF8E9
:100AB0000546601C02D004480078241800F0E4F8D1
:100AC000401BA042FAD370BD08000020F8B50023F7
:100AD00003240125BAE02E469E40B44632407CD025
:100AE0000E79B607B60F012E01D0022E17D18668F7
:100AF0002746B6465E00B74000967646BE43B646E9
:100B0000CF68009EB74076463743876046686746A1
:100B1000BE430F79FF06FF0F9F40374347600E79B2
:100B2000F643B6070ED0C6682746B4465E00B64602
:100B3000B7406646BE43B4468F687646B7406646C1
:100B40003743C7600E79B607B60F022E14D1DE0800
:100B5000B60036180096366A5F07B446FE0E0F27B9
:100B6000B646B7406646BE43B4460F697646B740C0
:100B700066463743009E376206682746B4465E00E5
:100B8000B646B7406646BE430F79B446BF07BF0FAF
:100B90007646B7406646374307604E68B603B60FE1
:100BA00053D02D4FBE692E43BE61BE699F08F60724
:100BB000F60F2A4EBF00BE190096B6680F27B4463E
:100BC0009E07360FB646B7406646BE430927FF0666
:100BD000B446B84202D1002710E036E0204FB842B8
:100BE00001D101270AE01F4FB84201D1022705E0D9
:100BF0001D4FB84201D1032700E005277646B740D4
:100C000066463743009EB760184EB6684F689643F5
:100C1000FF0200D51643154FBE60FE684F6896432D
:100C2000BF0200D51643114FFE607E684F689643A1
:100C3000BF0300D516430D4F7E603E684F68964354
:100C4000FF0300D51643094A16605B1C0A68164666
:100C5000DE4000D03FE7F8BD001002400000014038
:100C60000004004800080048000C0048000401404F
:100C70000069084000D001207047002A01D081613E
:100C8000704781627047000001488068704700002B
:100C90000800002070B5024640325378202B1CD14A
:100CA0001378012B19D00123137024245470046885
:100CB00025689D432560046825681E03B5432560AB
:100CC000046825680D4325600068016819430160C8
:100CD000202050700020107070BD022070BD70B5D3
:100CE000024640325378202B1BD11378012B18D0A9
:100CF000012414702423537003681D68A5431D60EC
:100D000005682B680F263602B34309021943296090
:100D1000006801682143016020205070002010709D
:100D200070BD022070BD000070B5040006D02546DD
:100D3000403568780026002802D005E0012070BD0B
:100D40002E70204600F018FA242068702068016890
:100D50004908490001600F2160680906884321683D
:100D6000086121688A680120C00382438A60E168C3
:100D70000129A1682FD0212292021143226891609B
:100D80000121E268C902022A2268536825D08B43F8
:100D9000536021684A68124B1A434A602168CA6846
:100DA0008243CA60616920690843A1690902084356
:100DB0002168C860216AE0690843216808602068EA
:100DC0000168012211430160666420206870266377
:100DD000AE70002070BD0143D0E70B43D8E70000A0
:100DE00000800002FFB5054604464035687883B0B0
:100DF000202879D12878012876D001272F70FFF795
:100E000043FF0190012200901923D103204601F0F5
:100E10001DF900283CD1222068701020A8700026FF
:100E2000666405986062069860856663618D2F48E8
:100E3000FF2903D927853A4600903CE0618D218542
:100E400000903EE02046049901F0EAF816E001F037
:100E500037F900281CD12068406A616A0870606A0E
:100E6000401C6062208D401E80B22085618D491E2D
:100E70006185618D002901D000280CD0608D019A18
:100E800000280C992046E2D101F06CF900281DD011
:100E9000012007B0F0BD019800900022802120467B
:100EA0000C9B01F0D3F80028F2D1608DFF2805D902
:100EB000FF222285009601231B06C3E7608D208553
:100EC0000096208D0123C2B25B06BBE7206820217B
:100ED000C16120684268064B1A4042606970AE707A
:100EE0002E700020D5E7FFE70220D2E70024008023
:100EF00000E800FEFFB5054604464035687881B03D
:100F0000202877D12878012874D001202870FFF795
:100F1000BBFE0746012200901923D103204601F0B1
:100F200095F8002851D1212068701020A870002663
:100F3000666403986062049961856663628D3949CD
:100F4000FF2A03D9FF222285CB0206E0628D22858B
:100F500001235B061204120C0FD022680078906205
:100F6000606A401C6062608D401E6085208D401E5E
:100F70002085401CC2B2009101E000220091204671
:100F8000029901F04DF816E001F017F900281CD184
:100F9000606A216800788862606A401C6062608DC7
:100FA000401E6085208D401E80B22085618D002905
:100FB00001D000280CD0608D0A9900283A462046BE
:100FC000E2D101F0CFF800281DD0012005B0F0BD1E
:100FD00000970022802120460A9B01F037F8002864
:100FE000F3D1608DFF2806D9FF22228501231B063D
:100FF0000096C4E714E0608D20850096208D0123C3
:10100000C2B25B06BBE721682020C86121684A683C
:10101000054B1A404A606870AE702E700020D5E70C
:101020000220D3E70020008000E800FEFFB505465F
:1010300004464035687883B0202872D10C98002887
:1010400014D00D98002811D02878012869D00120EB
:101050002870FFF719FE0746012200901923D103DB
:10106000204600F0F3FF002871D103E00120400288
:1010700060646CE0212068704020A87000266664DF
:101080000C9860620D98608566630E9800900197D9
:1010900004A90EC9204600F04FFF002801D02E7091
:1010A00055E0608DFF2805D9FF22228501231B060C
:1010B000009606E0608D20850096208D0123C2B247
:1010C0005B062046049900F0ABFF3A4620460E9995
:1010D00001F073F800283AD1606A216800788862CC
:1010E000606A401C6062608D401E6085208D401EDD
:1010F00080B22085618D00291FD000281DD1009766
:101100000022802120460E9B00F0A0FF00281ED167
:10111000608DFF2806D9FF22228501231B06009639
:1011200007E024E0608D20850096208D0123C2B267
:101130005B062046049900F073FF608D0028C4D13F
:101140003A4620460E9901F00DF8002802D0012001
:1011500007B0F0BD20682021C16120684268054BBE
:101160001A4042606970AE702E700020F0E70220D5
:10117000EEE7000000E800FE10B586B0044614213A
:101180006846FFF733F813492068884220D1124C93
:1011900061690120400401436161616901400320EC
:1011A000059140020090122001900020029003203F
:1011B00003900420049009206946C006FFF786FCCE
:1011C000E169012040050143E161E16901400591C8
:1011D00006B010BD00540040001002400248816873
:1011E00002788918816070470800002010B5064811
:1011F0000168102211430160032000F007F800F09D
:1012000027F8002010BD00000020024070B5044601
:101210000D4D7D202978C000FEF764FF01460B4884
:101220000068FEF75FFF00F075FB002809D1042C71
:1012300007D200222146401E00F070F800206C60AA
:1012400070BD012070BD00000800002014000020C7
:1012500008B5084881690122114381618169114003
:101260000091C26901040A43C261C069084000904C
:1012700008BD00000010024070B515460E4604007F
:1012800003D0E06F002802D007E0012070BD0021EC
:1012900078200155204600F079FD2420E067206881
:1012A0000168490849000160606A002802D02046B0
:1012B00001F02CFD204601F021FE0128E6D0216836
:1012C0004A680120C00282434A6021688A68082374
:1012D0009A438A60854206D121684A681202120A3E
:1012E00033061A434A6021680A6882432A430A6027
:1012F00020680168012211430160204601F06CFD65
:1013000070BD0000002805DBC106C90E0120884021
:10131000014908607047000000E100E010B501F0ED
:10132000F5FE10BDF8B505460068354CC00352D532
:10133000E0690026C00007D4E16920040143E161AF
:10134000E1690140012600912E480168C90510D4C9
:101350000168821511430160FFF796FC074604E01F
:10136000FFF792FCC01B642824D826480068C005FB
:10137000F6D5206A03273F02384020D069683940FB
:1013800081421CD0206A226AB843012109040A4321
:101390002262226A8A4322622062C0070FD0FFF7CE
:1013A00073FC009008E0FFF76FFC0099411A1648A3
:1013B000814201D90320F8BD206A8007F3D5206A55
:1013C0006968B84308432062002E04D0E169012017
:1013D00000078143E1612878C00705D0206BA96828
:1013E00080088000084320632878800605D5206B9C
:1013F00010218843E968084320630020F8BD0000FD
:10140000001002400070004088130000F8B50F463D
:10141000060059D03A4D2868C007C00FB84209D21B
:10142000286840084000384328602868C007C00F7B
:10143000B84249D13068334C81070CD5400704D5F8
:10144000606807210902084360606068F0218843F2
:10145000B168084360603078C00726D07068012802
:101460000ED0216802280ED0890700292CDA616885
:101470008908890001436160FFF706FC00900DE0D8
:1014800021688903F1E78901EFE7FFF7FDFB009988
:10149000411A1D48814201D90320F8BD60680C2122
:1014A0000840716889008842EFD12868C007C00FE2
:1014B000B8420BD9286840084000384328602868A3
:1014C000C007C00FB84201D00120F8BD30784007F6
:1014D00006D56068072109028843F1680843606007
:1014E00000F028F86168094A0906090F515CC840F4
:1014F000074908600320FFF789FE0020F8BD0000BF
:10150000002002400010024088130000103600083E
:10151000140000200448054900684968044A490548
:10152000490F515CC8407047140000200010024071
:101530002036000810B5114A51680C200B460340B4
:101540000F48042B02D0082B01D0801010BD8B0255
:101550000C4C1B0FE45CD26A0A4B1207120F1033BB
:101560009A5CC90305D500231946FEF7E5FD21461F
:1015700001E02046044901F0B1FD10BD0010024019
:101580000048E801F035000800093D00FEB5040000
:1015900070D02078DC4DC0074AD068680007800F03
:1015A000012807D068680007800F022809D1686801
:1015B000C00306D5286880033AD560680028E7D0C4
:1015C00036E06168012914D001208004002901D08F
:1015D000052914D02A68012109048A432A60296850
:1015E000814329606068002816D0FFF74DFB06464E
:1015F0000EE028680121090408432860F2E7296801
:1016000001432960F5E7FFF73FFB801B64286ED894
:1016100028688003F7D50BE0FFF736FB064604E0A9
:10162000FFF732FB801B6428F1D828688003F7D4C9
:1016300020780126800700283CDA68680007800FC0
:1016400007D068680007800F022809D16868C003C6
:1016500006D42868800716D5E06801280AD112E070
:10166000E0680028286816D030432860FFF70CFB9C
:10167000074605E043E1FFF707FBC01B0228C6D879
:1016800028688007F7D52868F82188432169C900B0
:10169000084328600EE0400840002860FFF7F4FA95
:1016A000074604E0FFF7F0FAC01B0228AFD828680D
:1016B0008007F7D42078000722D5E0690028686AFF
:1016C0000ED030436862FFF7DFFA074604E0FFF709
:1016D000DBFAC01B02289AD8686A8007F7D50FE0AA
:1016E000400840006862FFF7CFFA074605E09DE03A
:1016F000FFF7CAFAC01B022889D8686A8007F7D4A6
:10170000207804274007002860DA00200190E8696B
:10171000C00008D4E969B8060143E961E9690140FC
:1017200001200091019079480168C90511D4016830
:10173000821511430160FFF7A7FA009005E0FFF75B
:10174000A3FA0099401A642870D870480068C00550
:10175000F5D5A06801280AD0002801D0052810D0AE
:10176000286A400840002862286AB84301E0286AD5
:1017700030432862A068002812D0FFF785FA009055
:101780000AE0286A38432862F1E7FFF77DFA0099FA
:10179000411A5F48814249D8286A8007F5D50DE093
:1017A000FFF772FA009006E0FFF76EFA0099411A0F
:1017B000574881423AD8286A8007F5D40198002812
:1017C00004D0E969012000078143E9612078C0065F
:1017D00035D5606901280CD0401D686B23D0384393
:1017E0006863686B400840006863FFF74DFA06467F
:1017F00022E0686B38436863686B30436863FFF7C7
:1018000043FA064604E0FFF73FFA801B02285BD844
:10181000686B8007F7D5686BF8218843A169C90018
:10182000084368630BE0B8436863F4E74CE0FFF7F4
:101830002BFA801B022847D8686B8007F7D4206AF0
:1018400000285ED069680907890F022942D0012665
:1018500036060228286805D0B0432860FFF714FA3E
:10186000044633E0B0432860FFF70EFA074604E071
:10187000FFF70AFAC01B022826D828688001F7D48F
:10188000E86AE16A000900010843E862616AA06A47
:10189000084369683D221204914308436860286840
:1018A00030432860FFF7F0F9044604E0FFF7ECF955
:1018B000001B022808D828688001F7D521E0FFF72F
:1018C000E3F9001B022801D90320FEBD286880012E
:1018D000F5D416E00128F8D06868E96A01221204FC
:1018E000636A02409A420AD10907E26A090F9142EB
:1018F00005D10F2189040840A16A884201D0012046
:10190000FEBD0020FEBD000000100240007000403F
:1019100088130000094910B5401E884201D90120F2
:1019200010BD074C60610321081F01F0EFFB002090
:10193000A06107202061002010BD0000FFFFFF0014
:1019400000E000E07047704770B5040005D0254600
:101950002035687F002802D006E0012070BD0020FD
:101960002877204600F014F802206877211D2068AF
:1019700001F02CF801204034A071A877E87720709E
:101980006070A070E070207160716877002070BD99
:1019900008B50068094988420FD10948C269811514
:1019A0000A43C261C069002208400090114613201A
:1019B000FFF7B4FC1320FFF7A5FC08BD0020004092
:1019C00000100240014620314A7F012A01D0012047
:1019D000704702224A770268D36801210B43D36023
:1019E0000068084A904202D0074A904204D18268B7
:1019F0005207520F062A02D002680A4302600020F2
:101A000070470000002C0140000400407047F8B50A
:101A100004460068C66805690027A907002913DA8B
:101A2000B10711D5F91E0161012020772068806976
:101A30008007204602D0FFF7E9FF04E000F0A4F899
:101A4000204600F02FF92777680716D5700714D5C0
:101A500004202168C0430861022020772068806943
:101A60008005800F204602D0FFF7D0FF04E000F091
:101A70008BF8204600F016F92777280715D5300790
:101A800013D508202168C04308610420207720680E
:101A9000C0698007204602D0FFF7B8FF04E000F0DD
:101AA00073F8204600F0FEF82777E80616D5F00612
:101AB00014D510202168C0430861082020772068D1
:101AC000C0698005800F204602D0FFF79FFF04E029
:101AD00000F05AF8204600F0E5F82777E80708D02C
:101AE000F00706D001202168C0430861204600F0BD
:101AF00029F9280608D5300606D580202168C0437C
:101B000008612046FFF71EFF680608D5700606D557
:101B100040202168C0430861204600F035F9A8063E
:101B200008D5B00606D520202168C04308612046AC
:101B3000FFF709FFF8BD000010B586B00446142178
:101B40006846FEF753FB0E492068884215D10D48C0
:101B5000426909010A43426140690840059010202A
:101B60000090022001900020029003900420049035
:101B700009206946C006FEF7A9FF06B010BD0000A7
:101B800000200040001002407047F8B506460446A9
:101B90002036307F00270D4601280ED001203077F7
:101BA000002A0CD0042A1BD0082A2FD00C2A3ED0A1
:101BB0000127002030773846F8BD0220F8BD2068A4
:101BC00000F056FF20688169082211438161206876
:101BD000826904218A438261206881692A6912E04E
:101BE000206800F081FF206882690121C9020A4350
:101BF000826120688169012292029143816120689B
:101C000081692A69120211438161D2E7206800F0DC
:101C1000A5FF2068C16908221143C1612068C2691B
:101C200004218A43C2612068C1692A6912E02068E0
:101C300000F0D0FF2068C1690122D2021143C161C6
:101C40002068C269012189028A43C2612068C16992
:101C50002A6912021143C161ABE770B5040005D0D7
:101C600025462035687F002802D006E0012070BD9F
:101C700000202877204600F014F802206877211D04
:101C8000206800F0A3FE01204034A071A877E87717
:101C900020706070A070E070207160716877002023
:101CA00070BD70477047000010B504460222203016
:101CB00000290AD004290DD02046403008290ED032
:101CC0004378012B10D0012010BD837F012BFAD166
:101CD00082770AE0C37F012BF5D1C27705E0037854
:101CE000012BF0D1027000E042700122206800F068
:101CF000B1FE10492068884205D00F4A904202D0B8
:101D00000E4A904204D1426C0123DB031A43426421
:101D100020680122884202D00949884204D18168A2
:101D20004907490F062902D00168114301600020CC
:101D300010BD0000002C014000440140004801405B
:101D40000004004070B500680D49884216D10D4C62
:101D50006068401C6060C8216068FEF7C3F9012517
:101D6000002900D1257014216068FEF7BBF9002915
:101D700000D16570FEF76CFC00F0E4FA70BD000065
:101D800000200040000000207047000010B586B021
:101D9000044614216846FEF729FA12492068884251
:101DA0001DD111488269012189030A438261826938
:101DB0000A4005924269C9000A43426140690840ED
:101DC00005900C2000901220019001210320039027
:101DD0000291049109206946C006FEF777FE06B01D
:101DE00010BD00000038014000100240FEE701680D
:101DF0008A69D243920701D400228A62006881690D
:101E0000C943C90703D08169012211438161704729
:101E1000F7B50446006882B0816900262746C906E6
:101E2000403735460092002945DA1021C16132E081
:101E30000398401C2FD0FEF727FF0099411A039802
:101E4000814201D8002826D12068416801229203EE
:101E50001140BA788369DB431B0417D401239B0329
:101E6000994213D0202A11D0416819434160FEF7EE
:101E70000BFF00900AE0FEF707FF01460098081AE2
:101E8000192803D920200543012604E02068806931
:101E9000C0438006EFD420688069C043800602D525
:101EA000002EC5D004E0002E02D121682020C86198
:101EB00004200543012621688869C20504D5012252
:101EC00015431202CA610126410508D508210D43B8
:101ED000CA012168CA610126800502D40AE0800592
:101EE00006D50220054321680002C861012601E0F1
:101EF000002E0FD02046FFF77AFF20684168074A7E
:101F000011404160606C284360642020787000209C
:101F1000B8703870304605B0F0BD000000E800FE33
:101F200004488178002901D0022070470121817086
:101F30000020704700000020F8B5044616461548FA
:101F40001D46DAB2C3020090079F204600F068F8F1
:101F50003A462046069900F030F9002818D1284664
:101F6000F5B2012809D02168300A88623A46204635
:101F7000069900F022F900280AD1206885620097AE
:101F8000002280212046069B00F060F8002800D047
:101F90000120F8BD00200080F8B5002101250C23A8
:101FA00014A2084600F089FC7D260124F6000C27C7
:101FB00061000123002212480096FEF79BFF0028D3
:101FC0000DD10C230FA2294600F077FC03232246F3
:101FD00029465A20009700F035FC6D1CEDB2641CB8
:101FE000E4B2802CE4D329460C2308A2002000F0A0
:101FF00064FCF8BD493243207363616E2E2E2E00BF
:10200000840000206465763A30780000493243202D
:102010007363616E20636F6D706C6574652E000074
:10202000890510B5890D12041143029C19430268F9
:102030002143490050684908630D034C23439843EA
:102040000843506010BD0000FF63FF03F8B51D4654
:1020500017460E46044626E029462046069AFFF714
:10206000D7FE002801D00120F8BD681C1BD0FEF768
:102070000BFE0699401AA84201D8002D13D1206802
:102080008169304688430CD00020B8420BD1616C86
:10209000202001436164403460700020A0702070F3
:1020A000E1E70120F1E7206881693046884304D0E8
:1020B0000020B842D0D00020F8BD0120F9E7000090
:1020C000F7B5002520270646044640363EE0204668
:1020D000029A0199FFF79CFE002800D00125206894
:1020E0008169C943890619D4002D17D18169816995
:1020F000C943C90610D41021C1610420606420685E
:10210000C76120684168164A11404160777000201D
:10211000B0703070012501E000206064FEF7B4FD6E
:1021200001460298091A0198814201D800280DD170
:10213000002D0BD120688069C043400706D5606C34
:102140003843606477700020307001252068806912
:10215000C043400701D5002DB9D02846FEBD000080
:1021600000E800FE70B516460D4604461EE03246F5
:1021700029462046FFF74CFE002801D0012070BD03
:10218000FEF782FD801BA84201D8002D0ED12068E9
:102190008069C043800609D5616C202001436164D9
:1021A000403460700020A0702070E7E720688069EC
:1021B000C0438006DBD4002070BD70B516460D46C6
:1021C000044620E0324629462046FFF721FE00283B
:1021D00001D0012070BD681C15D0FEF755FD801B95
:1021E000A84201D8002D0ED120688069C043800725
:1021F00009D5616C20200143616440346070002087
:10220000A0702070E5E720688069C0438007D9D4BA
:10221000002070BD03B568460078C2036846407868
:1022200001036846807811434002084381B2684642
:10223000C0788201684600790A43C1006846407947
:10224000114308430CBD00001FB506220A49684629
:10225000FDF7B3FF01990098FFF7DCFF694688811D
:102260001422022103A86C4607C4012300228A21FC
:102270000248FEF7DBFE1FBD18000020840000208E
:1022800010B5022100F018F8FEF768F80022034BA1
:10229000FDF7F4FFFEF7B6F810BD00000000F43FB4
:1022A00010B5012100F008F8010402D5C043401C1C
:1022B00080B2FEF74BF810BD33B583B01424054649
:1022C000012304AA8A210094FEF714FE022301AA26
:1022D0008A2128460094FEF785FD6846808805B06F
:1022E00040BA30BD10B5064B1A5C0A4205D0012930
:1022F00001D08A431A54012010BD002010BD0000F7
:1023000032000020092210B5D206002806D001288C
:1023100006D002280CD003280CD007E0802100E072
:1023200040211046FEF7A4FC002806D0002010BD76
:102330002021F6E702210248F4E7012010BD000049
:1023400000040048F8B5504C002225466270123552
:1023500061784B00E85A002801D0401EE852491C21
:10236000C8B260700428F3D32078401CC0B220703B
:10237000142873D30020444F2070BF1D60703E1F8F
:10238000C0B2315C3954FFF7BDFF61783F4A7054E9
:10239000012806D0535C5B085B00535400280DD025
:1023A00013E0525C01231A43384B5A547B5C002BD8
:1023B0000BD102231A43354B5A5406E07A5C012AAA
:1023C00003D104221343314A5354304B1B1F5A5C30
:1023D000002A08D0012A0ED0022A1ED0032A32D0A9
:1023E000042A34D048E0012846D17D2000014A006B
:1023F000A852012029E0002804D048002A5A002AC7
:1024000005D039E0C8204A00A852022031E06422F9
:102410002A521E4B2022585C28E0012804D0480094
:10242000285A002809D027E0184B1022585C104386
:1024300058540322181F42541EE0144B0822585CC3
:10244000104358540BE0002816D1585414E00028CB
:1024500005D048002A5A002A03D00DE012E00020DF
:1024600007E06422094B2A52585C4022104358541A
:102470000420064A121F5054491CC8B26070042838
:1024800000D27DE7F8BD00002400002032000020CB
:102490003EB500241649174800940194029412C0D6
:1024A000046004224460C2600121816004744474A9
:1024B0008474C474FF22C2328461426102461832BD
:1024C000147101620838FEF775F9002801D0FEF793
:1024D000E3F8012000030190052002900094694672
:1024E0000448FEF7DBF8002801D0FEF7D5F83EBD22
:1024F0000024014044000020F0B587B01421684654
:10250000FDF774FE24484269012189050A434261AE
:1025100042690A400592426949110A43426142698F
:102520000A400592426949000A43426140691B4ED4
:1025300008400590012203213046FEF79EFB092743
:10254000FF06012202213846FEF797FB03200024F4
:102550000125009002946946019503943046FEF7E8
:10256000B5FA02260294694638460096019503940E
:10257000FEF7ACFAE02000900194694602943846D8
:10258000FEF7A4FA01946946054800960294FEF706
:102590009DFA07B0F0BD0000001002400014004892
:1025A0000004004810B51348114901601249416008
:1025B000002181600161416181610122C161C260CC
:1025C0000162FEF7B1FB002801D0FEF765F800219B
:1025D0000848FEF75FFB002801D0FEF75DF80021F8
:1025E0000448FEF77CFB002801D0FEF755F810BD2B
:1025F0000054004084000020885D801010B588B031
:102600001C216846FDF7F2FD1748164901600024B9
:102610002F218460416015490461C160802181617E
:10262000FFF792F9002801D0FEF736F80E48FFF7C1
:1026300014FB002801D0FEF72FF860200090022044
:10264000029001940022694604940748FFF79DFA1E
:10265000002801D0FEF720F80348FFF76DFA08B014
:1026600010BD000000200040D8000020E70300005B
:1026700010B50D480B4901604B2149024160002112
:102680008160C16001618161C1610C2201624261AE
:1026900041620A46FEF7F0FD002801D0FDF7FCFF7D
:1026A00010BD00000038014020010020FEE770B599
:1026B00000242046B030C0B200F01AF9002000F02B
:1026C00017F9102000F014F90025002000F020F97F
:1026D0006D1CEDB2802DF8D3641CE4B2082CE8D355
:1026E00070BD10B50520FEF7DFF9AE2000F000F94F
:1026F000002000F0FDF8102000F0FAF8402000F073
:10270000F7F8812000F0F4F8FF2000F0F1F8A120A4
:1027100000F0EEF8C82000F0EBF8A62000F0E8F892
:10272000A82000F0E5F83F2000F0E2F8D32000F008
:10273000DFF8002000F0DCF8D52000F0D9F8802088
:1027400000F0D6F8D92000F0D3F8F12000F0D0F84E
:10275000DA2000F0CDF8122000F0CAF8DB2000F0FB
:10276000C7F8402000F0C4F8202000F0C1F8022093
:1027700000F0BEF88D2000F0BBF8142000F0B8F88F
:10278000A42000F0B5F8A62000F0B2F8AF2000F0C9
:10279000AFF8FFF78CFF0021084600F001F810BDEC
:1027A00010B50446B031C8B200F0A2F820091030CC
:1027B00000F09EF82007000F0121084300F098F870
:1027C00010BD0000FFB581B0203A019800240D46ED
:1027D000D6B27F2803D900204D1CEDB20190102BFA
:1027E00029460ED0FFF7DCFF062046431348351874
:1027F000285D00F08DF8641CE4B2062CF8D305B017
:10280000F0BDFFF7CDFF37010D4E3819305C00F0F9
:102810007FF8641CE4B2082CF7D36D1CE9B2019870
:10282000FFF7BEFF002438198019007A00F070F815
:10283000641CE4B2082CF6D3E1E700002836000857
:1028400050380008FFB581B000270A981D463C4665
:1028500046082EE0281B401E0A22C0B2012100E0DB
:1028600051430346401EC0B2002BF9D10398FDF737
:1028700039FC0A21FDF736FC002F05D1681E844281
:1028800002DA002909D001273031CAB23046019955
:1028900060434018C0B20A9B06E03046019960438D
:1028A00040180A9BC0B220220299FFF78BFF641CDC
:1028B000E4B2AC42CED305B0F0BDFFB581B017464F
:1028C0000E46044600250DE031462046049BFFF7E6
:1028D00079FF0834E4B2782C02D90024B61CF6B291
:1028E0006D1CEDB27A5D002AEED105B0F0BD00009E
:1028F0001CB5002269460A714871322000900223FB
:1029000001AA78210148FEF7F5FA1CBD84000020D9
:102910001CB5402269460A7148713220009002239A
:1029200001AA78210148FEF7E5FA1CBD84000020C9
:102930007047704710B5FEF751FC10BD70B594B0EC
:1029400030216846FDF752FC00240F9412200090BD
:10295000012010250D940E9410941294139403905A
:102960000521059006950C9404950226C9040B9048
:102970001194089609940A916846FEF707FE00280C
:1029800001D072B6FEE707200C900E9401210D963F
:102990000F940CA8FEF73AFD002801D072B6FEE7AE
:1029A000212010901395129410A8FEF7BBFC00286C
:1029B00001D072B6FEE714B070BD704710B5024882
:1029C000FFF725F810BD0000D800002070B50268A0
:1029D0001B4B1C4E984201D0B04203D17024A2433D
:1029E0004C682243184C194D984208D0B04206D08A
:1029F000174EB04203D0A04201D0A84204D1032612
:102A00003602B243CE6832438026B2434E69324327
:102A100002608A68C2620A688262984203D0A04259
:102A200001D0A84201D10969016301214161016915
:102A3000C90703D0016949084900016170BD000060
:102A4000002C0140000400400044014000480140C7
:102A50000020004010B5CB06DB0E0121046A99402E
:102A60008C430462016A9A401143016210BD000068
:102A7000F0B5056A026A5208520002624368826930
:102A80007024A24392080C689200144302229543DA
:102A90008A68134E2A43114DA84204D0B04202D096
:102AA000104FB84206D10827BA43CF681743042213
:102AB00097433A46A84204D0B04202D0094DA842FA
:102AC00006D103252D02AB434D691D438B692B4372
:102AD00043608461496841630262F0BD002C01409B
:102AE000004401400048014070B5046A026A1023A6
:102AF0009A4302624368826973252D02AA430D68D6
:102B00002D021543202294438A6812012243104C5F
:102B1000A04208D11446CA688026B4431201224359
:102B20004024A24305E00B4CA04202D00A4CA04234
:102B300008D10324A402A3434C69A4001C438B695D
:102B40009B0023434360856149688163026270BDD5
:102B5000002C0140004401400048014070B5056A66
:102B6000026AFF2301339A4302624268C3697024F8
:102B7000A3439B080C689B001C4301235B029D43FD
:102B80008B681B022B43104DA84208D11D46CB6811
:102B9000C614B5431B022B430515AB4305E00B4D93
:102BA000A84202D00A4DA84208D103252D03AA430A
:102BB0004D692D0115438A6912012A434260C4619F
:102BC0004968C163036270BD002C014000440140AC
:102BD0000048014030B5046A026A01231B039A438E
:102BE00002624368C26973252D02AA430D682D0253
:102BF00015430122520394438A68120322430A4C6C
:102C0000A04205D0094CA04202D0094CA04205D1F7
:102C10000124A403A3434C69A40123434360C56179
:102C200049680164026230BD002C0140004401404B
:102C3000004801400EB500280ED080216846017082
:102C40000721017103210172012201A9052000F071
:102C5000B9FC002810D101E003200EBD0122694615
:102C6000062000F0AFFC002806D1012202A90420B2
:102C700000F0A8FC0028F0D001200EBD08B5002807
:102C800006D0C02803D0FF2802D0032008BD802032
:102C9000694608700122022000F094FC0028F5D05B
:102CA000012008BD1CB569460870000A08710122A0
:102CB000002000F087FC002806D1012201A910465F
:102CC00000F080FC002800D001201CBD192210B5A6
:102CD00052010C49904201D2104602E0884200D9CC
:102CE00008460A21801AFDF713FA0749002801DA7D
:102CF000002002E0884200DD084680B2FFF7D2FFE4
:102D000010BD0000204E0000FF07000010B5818CB0
:102D1000090707D501684A680123DB039A43436B1F
:102D20001A434A60818CC90707D001684A680123A9
:102D30005B049A43836A1A434A60818C890707D5EA
:102D400001684A6801231B049A43C36A1A434A6014
:102D5000818C490707D501684A6801239B049A437F
:102D6000036B1A434A60818CC90607D502689168D3
:102D700001231B039943836B19439160818C89065E
:102D800007D501688A6801235B039A43C36B1A4322
:102D90008A60818C490612D503685A6801210905A9
:102DA000046C8A4322435A60026C8A4207D102684B
:102DB000516803235B059943436C19435160818C2F
:102DC000090607D501684A680123DB04806C9A4331
:102DD00002434A6010BD0000FEB50746002580375B
:102DE00004467D60FDF750FF01902068006826468C
:102DF00000076036002819DA2748009001210022D8
:102E000049052046019B00F007F900280ED0EFF39A
:102E10001080012181F3108821680A6880239A4379
:102E20000A6080F310882020E06729E020680068AD
:102E3000400728D518480090012100228905204626
:102E4000019B00F0E9F800281DD0EFF3108001216C
:102E500081F3108821680A68FF2321339A430A60AE
:102E600080F31088EFF31080012181F3108821682E
:102E70008A68520852008A6080F3108820203860E7
:102E800035760320FEBD2020E06738602566656644
:102E900035760020FEBD0000FFFFFF0110B5EFF307
:102EA0001081012282F3108802681368FF24213404
:102EB000A343136081F31088EFF31081012282F3A2
:102EC0001088026893685B085B00936081F3108848
:102ED000016E01290BD1EFF31081012282F31088DA
:102EE000026813681024A343136081F31088202222
:102EF00080210A5000210166816610BD70B504462C
:102F000080682169E269084361690025114308432B
:102F100021680A683C4B1A4002430A6021684868ED
:102F2000032212039043E26810434860A169206ABB
:102F3000084321688A680B231B029A4302438A6074
:102F40003248006B8007800F16D0012818D0022865
:102F500018D0032812D010210122E369D2032C4893
:102F60002C4E93422AD100290ED0022913D00429D5
:102F70000DD008293BD11FE00021EDE70221EBE74E
:102F80000421E9E70821E7E7FEF7C4FA01E0FEF7CC
:102F9000D1FA002832D0616840004A088018FDF755
:102FA000A1F801461039B14221D81A49491C014003
:102FB0000007400F08431FE01046ECE7002906D049
:102FC00002290BD0042905D0082910D111E0FEF701
:102FD000A1FA01E0FEF7AEFA00280FD061684A08B6
:102FE0001018FDF77FF801461039B14203D90125C9
:102FF00004E01046F2E780B22168C8600020A066B5
:10300000E066284670BD0000F369FFFF0010024033
:1030100000127A00EFFF0000FFB506468036054635
:1030200081B00F460446603534E00A98401C31D028
:10303000FDF72AFE0499411A0A98814218D80028FF
:1030400016D020680168490724D5802F22D0402F50
:1030500020D0C169C94309070CD40827076220465C
:10306000FFF71CFF776000202876012005B0F0BD37
:103070000320FBE7C069C04300050BD40120216891
:10308000C00208622046FFF709FF20207060002080
:103090002876EDE72068C1693846884305D00021CD
:1030A00003988142C1D00020E0E70121F8E7202108
:1030B000020C01D010211046020A01D01046083936
:1030C000020901D01046091F820801D01046891E4E
:1030D000420801D0881E7047081A7047F8B5040CE2
:1030E0008BB2264682B25E430D0C1046370C584315
:1030F000360480190021794116466E43370C360498
:103100008019794126466E438919F8BD8307FF224D
:10311000DB0E9A408907090E9940002808DB8308D6
:1031200009489B001B1818689043084318607047B3
:103130000007000F0838830804489B001B18D86953
:1031400090430843D861704700E400E000ED00E0E0
:1031500002E008C8121F08C1002AFAD17047704760
:10316000002001E001C1121F002AFBD170470000BE
:1031700038B504461448FFF793F8002C1BD01349C8
:10318000FDF73FF804461048FFF77AF8FDF7F4F82A
:1031900002460C25052300214F200095FFF752FB26
:1031A0002046FDF7E9F80246052301214F2000954E
:1031B000FFF748FB38BDFDF711F9054A054BFDF750
:1031C0005DF8FDF71FF9DDE7840000200000FA43F9
:1031D0009A9999999999A93F8AB00020BE4C059077
:1031E000FEF704F8FFF7AAFBFFF786F9FFF750F99F
:1031F000FFF7D8F9FFF73CFAFFF700FAFEF790FE69
:103200000025B64E002803D1B548FFF71DF8B5706C
:10321000FEF786FE002802D1FFF763FAB570FEF7CD
:103220007FFE002812D1AE48FFF704FD002806D02B
:103230000C23ACA205210020FFF73FFB05E0204650
:10324000FFF744FDFF20FFF719FDB570FEF768FE9C
:10325000002802D1FEF7A0FEB5707D20C000FDF76A
:1032600023FC0021A348FEF71FFDA248FEF7AAFB9E
:10327000FEF756FE002802D1FEF78EFEB570FEF76F
:103280004FFE002826D1FFF712FA00210C239AA244
:103290000846FFF712FB0C239CA201210020FFF738
:1032A0000CFB0C239EA202210020FFF706FB0C233F
:1032B000A0A203210020FFF700FB0C23A2A20621FD
:1032C0000020FFF7FAFA0C23A5A207210020FFF740
:1032D000F4FAB57000220121A648FDF7CEFC7F4824
:1032E0000178002932D005700598FFF741FFA24808
:1032F000FDF7ACFB0A21A048FDF744FB00281DD1D7
:103300009D48FDF753FA06460A209C497043401831
:103310007D21C900484399498039FCF7E3FE024604
:103320000C27052303214F200097FFF78BFA052375
:10333000324604214F200097FFF784FA0C200090BA
:103340000523224602214F20FFF77CFAFDF79CFC63
:10335000FDF704F88A4A8B4BFCF790FFFDF720F845
:1033600006463C21FCF7BEFE024668468177029184
:10337000D7B24777E12109013046FCF7B3FEC1B26D
:1033800068460391017780493046FCF7ABFE0C2676
:10339000024606900223072100962A20FFF752FAE0
:1033A0000223009607214220039AFFF74BFA0223DB
:1033B0003A4607215A200096FFF744FA0223009666
:1033C00007217220029AFFF73DFA08210020FEF73C
:1033D00089FF002800D0641C10210020FEF782FF26
:1033E000002800D00A3420210020FEF77BFF402176
:1033F0000020FEF777FF002800D064340821012068
:10340000FEF770FF002800D0641E10210120FEF797
:1034100069FF002800D00A3C20210120FEF762FF4E
:1034200040210120FEF75EFF002800D0643C082107
:103430000220FEF757FF002802D0A0B2FFF746FC9B
:1034400010210220FEF74EFF20210220FEF74AFF46
:1034500040210220FEF746FF08210320FEF742FF2D
:1034600000280CD0012211464248FDF706FC01203D
:1034700005900C2345A206210020FFF71EFA10211B
:103480000320FEF72FFF00280BD00022012139482E
:10349000FDF7F3FB00200C233FA206210590FFF768
:1034A0000CFA20210320FEF71DFF002805D00C2375
:1034B0003CA206210020FFF700FA40210320FEF77E
:1034C00011FF002805D00C233AA206210020FFF7A7
:1034D000F4F9FDF7BDF802E78813000000000020B2
:1034E0008400002054505335353238395F455252EC
:1034F00000000000D80000204275735F56203D3A5E
:103500002020202020206D5600000000437572729C
:10351000656E743A202020202020754100000000B4
:10352000566F7574207365743D20202020206D56E1
:10353000000000005662617420766F6C3D202020F0
:1035400020206D56000000003132333435363738D4
:1035500039303132333435363738393031000000C4
:1035600054696D653A30302030303A30303A30307E
:10357000000000000014004844000020AA020000DF
:10358000FCA9F1D24D62503F805101006375725F1A
:1035900073656C5F356D52006375725F73656C5F48
:1035A000353052004B45595F5057525F4C4F4E4794
:1035B000000000004B45595F5057525F524550453F
:1035C000415400003EB504460848006800280BD06E
:1035D00014236D460EC501232246E821FDF726FD82
:1035E000002800D002203EBD01203EBD200000206A
:1035F00002030405060708090A0B0C0D0E0F101034
:103600000102030405060708090A0B0C0D0E0F1032
:103610000000000000000000010203040607080982
:103620000000000001020304000000000000000090
:10363000002F000000000700070000147F147F1413
:1036400000242A7F2A120062640813230036495599
:10365000225000000503000000001C224100000071
:1036600041221C000014083E08140008083E080807
:10367000000000A060000008080808080000606062
:103680000000002010080402003E5149453E0000A1
:10369000427F4000004261514946002141454B3183
:1036A000001814127F10002745454539003C4A494F
:1036B00049300001710905030036494949360006C1
:1036C0004949291E00003636000000005636000029
:1036D00000081422410000141414141400004122A4
:1036E000140800020151090600324959513E007C7C
:1036F0001211127C007F49494936003E4141412266
:10370000007F4141221C007F49494941007F09094E
:103710000901003E4149497A007F0808087F0000FE
:10372000417F4100002040413F01007F08142241B9
:10373000007F40404040007F020C027F007F040871
:10374000107F003E4141413E007F09090906003ECD
:103750004151215E007F09192946004649494931F6
:103760000001017F0101003F4040403F001F204019
:10377000201F003F4038403F0063140814630007D7
:103780000870080700615149454300007F4141002E
:1037900000552A552A55000041417F0000040201CE
:1037A00002040040404040400000010204000020AC
:1037B00054545478007F48444438003844444420EA
:1037C00000384444487F00385454541800087E0997
:1037D00001020018A4A4A47C007F0804047800005F
:1037E000447D4000004080847D00007F102844001C
:1037F0000000417F4000007C04180478007C08042D
:10380000047800384444443800FC24242418001868
:10381000242418FC007C0804040800485454542054
:1038200000043F444020003C4040207C001C2040DD
:10383000201C003C4030403C004428102844001C20
:10384000A0A0A07C004464544C4414141414141418
:103850000000000000000000000000000000000068
:10386000000000F8000000000000003330000000FD
:1038700000100C06100C0600000000000000000004
:1038800040C07840C0784000043F04043F04040076
:10389000007088FC08300000001820FF211E000086
:1038A000F008F000E018000000211C031E211E009B
:1038B00000F00888700000001E2123241927211021
:1038C00010160E00000000000000000000000000C4
:1038D000000000E01804020000000007182040006B
:1038E00000020418E000000000402018070000005B
:1038F000404080F0804040000202010F01020200BF
:10390000000000F0000000000101011F01010100A2
:10391000000000000000000080B070000000000007
:103920000000000000000000000101010101010190
:103930000000000000000000003030000000000027
:1039400000000000806018040060180601000000FC
:1039500000E010080810E000000F102020100F00F9
:10396000001010F8000000000020203F2020000080
:1039700000700808088870000030282422213000D8
:1039800000300888884830000018202020110E00E0
:103990000000C02010F8000000070424243F240089
:1039A00000F80888880808000019212020110E005E
:1039B00000E0108888180000000F112020110E0070
:1039C00000380808C83808000000003F0000000068
:1039D0000070880808887000001C222121221C0029
:1039E00000E010080810E0000000312222110F0052
:1039F000000000C0C00000000000003030000000E7
:103A00000000008000000000000080600000000056
:103A1000000080402010080000010204081020006F
:103A200040404040404040000404040404040400BA
:103A3000000810204080000000201008040201004F
:103A4000007048080808F00000000030360100004F
:103A5000C030C828E810E0000718272423140B0002
:103A60000000C038E0000000203C2302022738207C
:103A700008F8888888700000203F202020110E0060
:103A8000C030080808083800071820202010080057
:103A900008F808080810E000203F202020100F0040
:103AA00008F88888E8081000203F2020232018000C
:103AB00008F88888E8081000203F20000300000074
:103AC000C03008080838000007182020221E020015
:103AD00008F808000008F808203F210101213F20D4
:103AE000000808F8080800000020203F20200000FF
:103AF00000000808F8080800C08080807F000000EF
:103B000008F888C028180800203F20012638200027
:103B100008F8080000000000203F2020202030008E
:103B200008F8F800F8F80800203F003F003F2000A8
:103B300008F830C00008F808203F200007183F00B0
:103B4000E01008080810E0000F10202020100F00DF
:103B500008F808080808F000203F210101010000D2
:103B6000E01008080810E0000F18242438504F0017
:103B700008F8888888887000203F2000030C3020D7
:103B800000708808080838000038202121221C0015
:103B9000180808F8080818000000203F200000005E
:103BA00008F808000008F808001F202020201F0047
:103BB0000878880000C83808000007380E010000A7
:103BC000F80800F80008F800033C0700073C030071
:103BD000081868808068180820302C03032C3020D7
:103BE0000838C800C83808000000203F2000000046
:103BF00010080808C838080020382621202018009E
:103C0000000000FE020202000000007F4040400071
:103C1000000C30C000000000000000010638C000A9
:103C200000020202FE000000004040407F00000051
:103C30000000040202020400000000000000000076
:103C40000000000000000000808080808080808074
:103C5000000202040000000000000000000000005C
:103C600000008080808000000019242222223F2052
:103C700008F8008080000000003F112020110E0095
:103C80000000008080800000000E11202020110024
:103C9000000000808088F800000E112020103F20D6
:103CA0000000808080800000001F2222222213005A
:103CB000008080F0888888180020203F20200000A5
:103CC0000000808080808000006B9494949360005A
:103CD00008F8008080800000203F210000203F2065
:103CE00000809898000000000020203F2020000065
:103CF000000000809898000000C08080807F000055
:103D000008F8000080808000203F24022D30200031
:103D1000000808F8000000000020203F20200000DC
:103D20008080808080808000203F20003F20003FF6
:103D30008080008080800000203F210000203F2004
:103D40000000808080800000001F202020201F00B5
:103D5000808000808000000080FFA12020110E00E4
:103D60000000008080808000000E112020A0FF80D5
:103D7000808080008080800020203F212000010082
:103D800000008080808080000033242424241900D7
:103D9000008080E0808000000000001F20200000E4
:103DA0008080000000808000001F202020103F2025
:103DB000808080000080808000010E3008060100B5
:103DC00080800080008080800F300C030C300F005A
:103DD00000808000808080000020312E0E31200085
:103DE000808080000080808080818E7018060100B5
:103DF00000808080808080000021302C22213000D3
:103E000000000000807C020200000000003F4040F3
:103E100000000000FF00000000000000FF000000A4
:103E20000002027C800000000040403F00000000D3
:103E3000000601010202040400000000000000006E
:103E4000603E0008000000204400000050310008DF
:103E5000A43E000844000020640500006031000812
:103E6000000000000000000001000000040000004D
:103E70000000000000127A000302070700010000A2
:103E8000840000200000000000000000000000008E
:103E90000000000000000000000000000000010021
:043EA000000000001E
:04000005080000B13E
:00000001FF
